:100000000C944F010C9477010C9477010C947701B8
:100010000C9477010C9477010C9477010C94770180
:100020000C9477010C9477010C94FC040C946E05ED
:100030000C9477010C9477010C9477010C94770160
:100040000C9477010C9477010C9477010C94770150
:100050000C9477010C9477010C9477010C94EA0CC2
:100060000C9477010C9477010C9477010C94770130
:100070000C9477010C9477010C9477010C94770120
:100080000C9477010C9477010C9477010C94770110
:100090000C9477010C9477010C9477010C94770100
:1000A0000C9477010C9477010C947701F309F6090D
:1000B000E509E909ED09170A170A170AFA09FE09FD
:1000C000020A080A0C0A170A120A000000000000BF
:1000D00000002A2B280000000000000000000000A3
:1000E000000000000000000000002C9EB4A0A1A2AF
:1000F000A434A6A7A5AE362D3738271E1F202122EF
:1001000023242526B333B62EB7B89F8485868788E7
:10011000898A8B8C8D8E8F909192939495969798D7
:10012000999A9B9C9D2F3130A3AD35040506070895
:10013000090A0B0C0D0E0F101112131415161718B7
:10014000191A1B1C1DAFB1B0B500080B000202024A
:100150000100090400000102020000052400100152
:1001600005240101010424020605240600010705F7
:10017000810310004009040100020A000000070585
:100180000202400000070583024000000403090446
:1001900012010002EF0201404123378000010102F9
:1001A000030141726475696E6F204C4C43004172CB
:1001B0006475696E6F204D6963726F000000000006
:1001C000240027002A002D00300000000000250038
:1001D00028002B002E00310004040404040304054D
:1001E00002020202040302020202060606060606D4
:1001F00004040202020404040802011040804010BA
:10020000204080408008020401804020100201103C
:100210008010204040200000000200090F00000371
:100220000401000C000000000000000000000000BD
:10023000000000000005010902A1010901A10085DB
:10024000010509190129031500250195037501818F
:100250000295017505810305010930093109381539
:1002600081257F750895038106C0C005010906A197
:10027000018502050719E029E7150025017501959B
:1002800008810295017508810395067508150025FA
:10029000730507190029738100C09110340D1124D2
:1002A0001FBECFEFDAE0DEBFCDBF22E0A4EBB1E0AE
:1002B00001C01D92A337B207E1F711E0A0E0B1E061
:1002C000ECE0F8E202C005900D92A43BB107D9F72B
:1002D00011E0CEE4D1E004C02197FE010E94AE11EE
:1002E000CD34D107C9F70E94380D0C94F9130C9442
:1002F00000004091DB015091DC012091D901309147
:10030000DA0142175307B4F49091E8009570E1F3D5
:100310009091E80092FD19C08093F1008091DB017B
:100320009091DC0101968F739927892B19F48EEF38
:100330008093E8008091DB019091DC01019690931D
:10034000DC018093DB0181E0089580E00895DF9275
:10035000EF92FF920F931F93CF93DF93D82EF92E36
:10036000E42E062F10E0C8010196880F0E94790143
:1003700083E00E947901CD2DDF2D0C0F1D1FC017CA
:10038000D10789F0E7FE03C0FE01849101C0888196
:100390000E947901F82E80E00E9479018F21219638
:1003A0008111EDCF01C081E0DF91CF911F910F91BD
:1003B000FF90EF90DF900895DF92EF92FF920F93FE
:1003C0001F93CF93DF93D82E8A017B01E40EF51E95
:1003D000EB01CE15DF0571F0D7FE03C0FE0184915D
:1003E00001C088810E94790121968111F2CF8FEF9F
:1003F0009FEF01C0C801DF91CF911F910F91FF9036
:10040000EF90DF9008952FB7F89487708093E900FC
:100410009091E800892F807295FF04C09091F200BE
:1004200080E4891B2FBF0895615030F02091F100C6
:10043000FC0120830196F8CF289A84E68093E50199
:100440000895CF92DF92EF92FF920F931F93CF9375
:10045000DF936C017A018B01C0E0D0E0CE15DF059F
:1004600081F0D8016D918D01D601ED91FC91019043
:10047000F081E02DC6010995892B11F02196EECF70
:100480007E01C701DF91CF911F910F91FF90EF90F7
:10049000DF90CF9008958091D10181110DC082E04D
:1004A0008093CD0184E08093CE011092D001109210
:1004B000CF0181E08093D1018DEC91E008950F93FD
:1004C0001F93CF93DF931F92CDB7DEB782E089836E
:1004D00042E450E06AE471E080E80E94DC010E949E
:1004E0004B02DC0112960D911C9113970115110519
:1004F00089F0D801ED91FC910280F381E02DBE01DD
:100500006F5F7F4FC801099597FD04C0F801008512
:100510001185ECCF89810F90DF91CF911F910F91C1
:100520000895CF93DF931F92CDB7DEB76983DC01C7
:10053000ED91FC910280F381E02D41E050E0BE019D
:100540006F5F7F4F09950F90DF91CF91089583E002
:100550008093E9008091F200882319F08AE3809368
:10056000E800089583E00E94030290E00895FC01F2
:100570008485958597FD0BC09FB7F89482E08093A2
:10058000E9008091F2009FBF90E0019608959FB727
:10059000F89482E08093E9008091F2009FBF90E0A0
:1005A0000895DC01FB0112968C91129790E0248152
:1005B000358182179307D1F491818081813A31F49A
:1005C00081E0913091F0933089F411C0813271F45F
:1005D0009B3021F482811F968C9305C09A3031F4B0
:1005E000828150968C9381E00895089580E008956B
:1005F000DC01FB0188E4808389E4818384E48283D5
:100600001D969C911D979F709F5B93831D968D9166
:100610009C911E9724E0969587952A95E1F78F7017
:100620008F5B848385E00895EF92FF920F931F9371
:10063000CF93DF93FB012081213851F523812232B2
:1006400039F5DC0112962C9130E044815581421736
:100650005307F1F4EC010B851C85E12CF12C0115FD
:10066000110591F0F801448155816281738180E820
:100670000E94DC018F3FFFEF9F0769F0E80EF91E33
:10068000D8010D911C91EBCF81E08F87C70105C088
:1006900080E090E002C08FEF9FEFDF91CF911F913C
:1006A0000F91FF90EF900895CF93DF93CDB7DEB712
:1006B00069970FB6F894DEBF0FBECDBFFC01DB011A
:1006C0008C918F5F8C93BE016F5F7F4F89E1DB015F
:1006D0001D928A95E9F729E0298384E08A8391E0D5
:1006E0009D8383E08E832A8721E22B879C879D87C9
:1006F0009F8722E2288B27E02B8B25E02C8B8E8B8B
:1007000020E430E0388F2F8B998F82818B83958501
:100710008685998B8A8B838180688D8B49E150E037
:1007200080E00E94DC0169960FB6F894DEBF0FBE30
:10073000CDBFDF91CF910895FC0182818F5BFB01DA
:10074000808381E00895CF92DF92EF92FF920F9322
:100750001F93CF93DF936C01EB017B01E40EF51E39
:1007600000E010E0CE15DF0581F069916D30D1F326
:10077000D601ED91FC910190F081E02DC601099523
:10078000892B19F00F5F1F4FEDCFC801DF91CF917B
:100790001F910F91FF90EF90DF90CF9008950895F3
:1007A00080E090E008950F931F93CF93DF931F9203
:1007B000CDB7DEB78C01FC018485958597FF0EC00F
:1007C000CE0101960E94460C019719F4898190E0B0
:1007D00002C08FEF9FEFF80195878487F801848529
:1007E00095850F90DF91CF911F910F910895CF9331
:1007F000DF931F92CDB7DEB7FC018485958597FD09
:1008000005C02FEF3FEF358724870BC0CE0101963F
:100810000E94460C019719F4898190E002C08FEF85
:100820009FEF0F90DF91CF910895FC0124813581D6
:10083000232B31F421E061157105A1F0FB0108C003
:10084000FC01808191816115710531F421E0FC0189
:100850008081882339F005C00E94C11321E0892BD3
:1008600009F020E0822F08950F931F93CF93DF9319
:10087000EC0188819981009729F02A813B81261714
:10088000370788F48B016F5F7F4F0E94D512009766
:1008900061F0998388831B830A832C813D81232BFC
:1008A00011F4FC01108281E001C080E0DF91CF9162
:1008B0001F910F910895CF93DF93EC018881998167
:1008C000009711F00E944C12198218821D821C821E
:1008D0001B821A82DF91CF910895EF92FF920F93BE
:1008E0001F93CF93DF93EC017B018A01BA010E9431
:1008F0003404811104C0CE010E945B0407C01D8333
:100900000C83B701888199810E94CA13CE01DF91BF
:10091000CF911F910F91FF90EF900895FC0180817E
:1009200091810C944C12FC0111821082138212826C
:10093000158214826115710551F0FB0101900020B0
:10094000E9F73197AF01461B570B0C946D040895DE
:10095000BF92CF92DF92EF92FF920F931F93CF93AC
:10096000DF937C016B01EA0189012417350720F42C
:100970008D2FE901042F182F63EB71E0C7010E944E
:100980009304D60114968D919C911597C817D90799
:1009900040F58017910708F48C01D601ED91FC9188
:1009A0001197E00FF11FB08010826D917C916C0F58
:1009B0007D1F6115710561F0FB0101900020E9F7D1
:1009C0003197AF01461B570BC7010E946D0403C04E
:1009D000C7010E945B04D601ED91FC91E00FF11F6D
:1009E000B082C701DF91CF911F910F91FF90EF90DF
:1009F000DF90CF90BF9008951F920F920FB60F9285
:100A000011248F939F938091E1009091E100937F57
:100A10009093E10083FF0FC01092E90091E0909362
:100A2000EB001092EC0092E39093ED001092E6013F
:100A300098E09093F00082FF20C093E09093E9004B
:100A40009091F200992319F09AE39093E800909125
:100A5000DE01992339F09091DE0191509093DE01EF
:100A6000992389F19091E501992339F09091E5015D
:100A700091509093E501992341F184FF10C080913A
:100A8000E2008E7E81608093E2008091E1008F7EA3
:100A90008093E1008091DF018E7E806111C080FF34
:100AA00016C08091E2008E7E80618093E20080918A
:100AB000E1008E7E8093E1008091DF018E7E816077
:100AC0008093DF0104C05D98CDCF2898D6CF9F9149
:100AD0008F910F900FBE0F901F9018951F920F923D
:100AE0000FB60F921124CF92DF92EF92FF920F93E5
:100AF0001F932F933F934F935F936F937F938F93A6
:100B00009F93AF93BF93EF93FF93CF93DF93CDB7B3
:100B1000DEB76C97DEBFCDBF1092E9008091E80090
:100B200083FFFBC168E0CE0145960E94140282EF6C
:100B30008093E8008D8987FF05C09091E80090FFC1
:100B4000FCCF03C09EEF9093E800982F907609F0B9
:100B5000C6C09E894F89588D2F89F88C91110CC081
:100B6000803829F48091E0018093F10002C0109256
:100B7000F1001092F10045C1913051F4811141C151
:100B80004130510509F03DC18091E0018D7F0BC0DE
:100B9000933061F4811135C14130510509F031C103
:100BA0008091E00182608093E0012BC1953049F48F
:100BB0008091E80080FFFCCF822F80688093E30063
:100BC00020C1963009F05EC00B8D1C8D22E0109282
:100BD000E9001092DC011092DB01F21232C0109297
:100BE000DA011092D9010E945F0299E0BE016F5FA5
:100BF0007F4FDB01E92F1D92EA95E9F79983FA828D
:100C000091E09E8390EA98879AEF99872091DB0183
:100C10003091DC01275F3F4F3C832B838D83109203
:100C2000E9001092DC011092DB011093DA010093CD
:100C3000D90149E050E080E00E94DC010E945F029F
:100C4000E0C01093DA010093D9010E944B02DC014D
:100C500012960D911C9113970115110509F4BBC053
:100C6000D801ED91FC910480F581E02DBE016B5E11
:100C70007F4FC8010995009709F0C7C0F8010085AA
:100C80001185EACF973009F445C1983021F481E00D
:100C90008093F100B6C0993009F0B3C0837009F0B9
:100CA00039C1E1E0F1E081E031E096E320812111FA
:100CB00009C08EE78093EA001092EA008F89809342
:100CC000E6019FC08093E9003093EB0021912093CF
:100CD000EC009093ED008F5F873041F7EACF8B8D6A
:100CE0009C8D1092E9001092DC011092DB01909330
:100CF000DA018093D901898D811153C08E899D8934
:100D0000913A49F4813209F005C147E050E06BE0C7
:100D100071E080E0BBC0913209F0FCC0833269F41D
:100D20008F89988DA0E0B0E080930701909308012F
:100D3000A0930901B0930A0164C0803269F48091E4
:100D4000E80082FFFCCF67E08BE091E00E94140294
:100D50008BEF8093E80055C0823209F052C08F8932
:100D600080931201EEEFFFE7859194918B3F9C4DAC
:100D700019F0E0E0F8E002C0EEEFFAE080910B013C
:100D800090910C01A0910D01B0910E01803B944017
:100D9000A105B10509F09EC08091120180FF79C0C4
:100DA00099C00E944B02FC010281138101151105BB
:100DB00009F4B0C0D801ED91FC910190F081E02DD3
:100DC000BE016B5E7F4FC801099581111AC0F80101
:100DD00000851185EBCFF1E0FF1609F44EC0F3E07A
:100DE000FF1298C08F89882309F44AC0823089F4A1
:100DF00040E86DE08EEA91E00E94A701882309F4A3
:100E000089C08EEF8093E80088C018161906CCF3CD
:100E100081C0813029F440E86BE082EA91E0ECCFB8
:100E2000833009F077C00E944B02DC011296ED90EE
:100E3000FC9013978E010F5F1F4F6801E114F104BE
:100E400079F0D701ED91FC910680F781E02DB80192
:100E5000C7010995080F111DF701E084F184EECF59
:100E6000D8011C92F60101900020E9F73197BF01EB
:100E70006C197D0940E0C601BFCF60E971E002C096
:100E80006CE871E0FB01449150E080E80E94DC01D5
:100E9000B8CFEE3F2AE0F20751F080819181873789
:100EA000A7E79A0721F09093FF0A8093FE0A87E74D
:100EB00097E791838083809160008093DD019BE0C0
:100EC00088E10FB6F894A895809360000FBE9093C8
:100ED000600097CF808191818737974709F091CF44
:100EE000A895809160008861809360008091DD0109
:100EF00080936000EE3FBAE0FB0739F08091FE0A74
:100F00009091FF0A918380837CCF1092FF0A109208
:100F1000FE0A77CF81E28093EB006C960FB6F894CF
:100F2000DEBF0FBECDBFDF91CF91FF91EF91BF919B
:100F3000AF919F918F917F916F915F914F913F9171
:100F40002F911F910F91FF90EF90DF90CF900F9016
:100F50000FBE0F901F9018957F928F929F92AF9225
:100F6000BF92CF92DF92EF92FF920F931F93CF9396
:100F7000DF93C82E8B017A018091E601811103C0B5
:100F80008FEF9FEF74C08091DF0180FF05C08091DB
:100F9000E00082608093E000CE2DDF2DD12C8AEF1F
:100FA000B82E8C2D8770982E8C2D8072882E8C2DCB
:100FB0008074782E9AE3A92E209719F4DD2009F485
:100FC00051C08C2D0E94030281110AC0BA94BB202B
:100FD000B9F261E070E080E090E00E94B00CECCFEC
:100FE000282F30E0C217D3070CF48C2F9FB7F8944A
:100FF0009092E9002091E80025FF32C0282F30E0D0
:10100000C21BD30B882029F08150A0F01092F10070
:10101000FBCFF801C7FE0AC0815050F044914093C5
:10102000F1003196F9CF41914093F1008150D8F70A
:10103000020F131FDD2019F0A092E8000AC0809172
:10104000E80085FD08C0A092E800DD24D394209735
:1010500039F0D12C05C0209719F47110A092E80046
:101060009FBFAACF5D9A84E68093DE01C701DF911E
:10107000CF911F910F91FF90EF90DF90CF90BF9095
:10108000AF909F908F907F900895CF93DF93EC0166
:1010900080911201882331F083E00E94AC0718167A
:1010A000190634F081E090E09B838A8380E090E031
:1010B000DF91CF9108958091C50181116AC081E0CF
:1010C0008093B8018093B9012EEB31E03093BB01DE
:1010D0002093BA011092BD011092BC012DE131E0C4
:1010E0003093B5012093B4011092C0011092BF015A
:1010F0001092C2011092C1018093C3018093C40178
:1011000081EC8093BE010E944B02FC012181809101
:10111000B80190E0820F911D0897C4F5A281B381B8
:10112000109729F484EB91E0938382830EC0189684
:101130008D919C911997009711F0DC01F8CF84EB09
:1011400091E019969C938E93189780818093B601B5
:1011500081818093B70190818091B901890F80834B
:1011600080E09091B801891788F4A091BA01B091FC
:10117000BB01A80FB11D9C91A181B0E0A050BF4F51
:101180009C9391819F5F91838F5FEBCF81E08093F0
:10119000C50184EB91E00895CF93DF93DC016838BB
:1011A00010F0685825C0E62FF0E067FF12C0E05845
:1011B000F10981E090E001C0880FEA95EAF7809597
:1011C00014969C911497892314968C93149760E03D
:1011D0000FC0E653FF4F6491662321F167FF08C0FB
:1011E00014968C9114978D7F14968C9314976F7727
:1011F000FD0186E0662321F09681691301C0168205
:10120000815031968111F6CFED010E945B08AE014D
:101210004C5F5F4F28E030E062E00E94910A81E07D
:1012200090E002C080E090E0DF91CF910895CF93ED
:10123000DF93DC01683810F068582DC0E62FF0E02D
:1012400067FF11C0E058F10981E090E001C0880F0C
:10125000EA95EAF714969C911497892B14968C932F
:10126000149760E018C0E653FF4F6491611109C004
:1012700081E090E013969C938E93129780E090E02B
:1012800046C067FF08C014968C911497826014962C
:101290008C9314976F7716968C911697681751F167
:1012A00017968C911797681729F118968C911897B3
:1012B000681701F119968C9119976817D9F01A9649
:1012C0008C911A976817B1F01B968C911B97681731
:1012D00089F0FD01369680E090E02191211105C052
:1012E000FD01E80FF91F668305C001968630910560
:1012F000A1F7BECFED010E945B08AE014C5F5F4FCE
:1013000028E030E062E00E94910A81E090E0DF9105
:10131000CF910895EF92FF921F93CF93DF93EC014B
:10132000162F0E9417097C01612FCE010E94CC0864
:10133000C7019927DF91CF911F91FF90EF900895FA
:101340003FB7F89480914F0290915002A0915102C2
:10135000B091520226B5A89B05C02F3F19F0019607
:10136000A11DB11D3FBFBA2FA92F982F8827820F2B
:10137000911DA11DB11DBC01CD0142E0660F771F7B
:10138000881F991F4A95D1F7089542E050E061EB1C
:1013900071E087EE91E00C944508E3E2F2E04491BD
:1013A000E4E0F2E02491E5EEF1E09491992309F470
:1013B00052C04423E1F150E0FA013197EF30F105DA
:1013C000B0F5EA5AFF4F0C94AE11309180003F7790
:1013D00007C0309180003F7D03C030918000377F8F
:1013E0003093800024C034B53F7702C034B53F7DD0
:1013F00034BD1DC0309190003F7707C03091900000
:101400003F7D03C030919000377F309390000FC034
:101410003091C0003F7703C03091C0003F7D3093D2
:10142000C00005C03091C200377F3093C200E92F61
:10143000F0E0EE0FFF1FE653FE4FA591B4919FB76A
:10144000F894811104C08C912095282302C0EC915E
:101450002E2B2C939FBF0895CF93DF93009779F0A5
:10146000FC0101900020E9F73197AF01481B590BAF
:10147000BC0187EE91E00E944508EC0102C0C0E08B
:10148000D0E00E94C5098C0F9D1FDF91CF91089578
:10149000CF93DF93FC01448155816081718187EE98
:1014A00091E00E944508EC010E94C5098C0F9D1F28
:1014B000DF91CF910895EF92FF920F931F93CF93F7
:1014C000DF93EC010091480210914902E090440240
:1014D000F0904502E114F104C9F001151105C9F0BD
:1014E0008C819D81080F191FB801CE010E94340420
:1014F000882361F0288139818C819D81B701820F19
:10150000931F0E94CA131D830C8303C0CE010E9447
:101510005B04CE01DF91CF911F910F91FF90EF906F
:101520000895AF92BF92CF92DF92EF92FF920F9306
:101530001F93CF93DF931F92CDB7DEB77C016983F2
:101540006A01590141E050E0BE016F5F7F4FFC012D
:1015500083810E94AC078C0197FD0BC0F70183814A
:10156000A501B60180640E94AC0797FD02C0800F00
:10157000911F0F90DF91CF911F910F91FF90EF90EE
:10158000DF90CF90BF90AF900895FC0144815581CA
:1015900080914802909149028417950780F08091CC
:1015A000440290914502009751F06081718161156C
:1015B000710529F00E94D11321E0892B09F020E068
:1015C000822F0895CF93DF9300D000D0CDB7DEB740
:1015D0009091370299838A836B831C820E945B08F7
:1015E00024E030E0AE014F5F5F4F61E00E94910A5E
:1015F0000F900F900F900F90DF91CF9108958093EF
:10160000370260E080E00E94E20A1092370260E058
:1016100080E00C94E20A2F923F924F925F926F9279
:101620007F928F929F92AF92BF92CF92DF92EF9272
:10163000FF920F931F93CF93DF93609048027090B7
:1016400049026114710409F40EC1FC018480958083
:101650008114910409F407C18B017C01FB01C48052
:10166000D580C818D908C0914402D0914502C11450
:10167000D104B9F4F70160817181CE010E94DF13BA
:10168000EC01009709F4EFC0F80160817181448199
:1016900055810E949B13F80184819581C80FD91F41
:1016A000E9CFD7FE47C05E01F70160817181C501B6
:1016B0000E94DF133C01009739F14C018A189B0806
:1016C000A401B501CE010E949B13C80DD91DF801DC
:1016D0006081718144815581CE010E949B13F80184
:1016E00084819581C80FD91FF701A480B580A60C0D
:1016F000B71C80914802909149028C0D9D1D9093DA
:10170000490280934802D0CFB501CE01DF91CF913D
:101710001F910F91FF90EF90DF90CF90BF90AF900F
:101720009F908F907F906F905F904F903F902F9001
:101730000C94CA13FC01408051805301CE01B201C8
:101740000E94DF13009729F0880D991DAC0CBD1C79
:10175000F6CF6A147B0409F486C08091460290910A
:1017600047028A159B0588F4B5016F5F7F4FCE0154
:101770000E94D512009709F476C090934502809399
:101780004402B0924702A0924602C0914802D09112
:1017900049022197D7FD67C04E01F701448055806B
:1017A0004114510409F45FC0A0904802B09049026E
:1017B000A114B10409F457C0A414B50408F453C02B
:1017C000CA15DB0520F04501F1E08F1A9108609001
:1017D000440270904502C301CFEFDFEF1301280CE4
:1017E000391C2816390680F0F701608171810E944A
:1017F000DF13009749F09C012619370982169306DA
:1018000008F0E9010196EDCFD7FD2DC04C0E5D1E0D
:10181000C301840D951DA50144195509BC018C0D0A
:101820009D1D0E94A41380914802909149028C0D45
:101830009D1D90934902809348022091440230916B
:101840004502F901E80FF91F10828091440290913E
:101850004502F80160817181448155818C0F9D1F83
:101860000E949B1396CFDF91CF911F910F91FF9014
:10187000EF90DF90CF90BF90AF909F908F907F9030
:101880006F905F904F903F902F9008952091E601C8
:10189000211103C08FEF9FEF08955FB7F89422E006
:1018A0002093E9002091F20030E01216130614F4A0
:1018B00021E030E0422FFC0184E6415038F0289AC4
:1018C0008093E5019091F1009193F7CF21153105B7
:1018D00021F08091F200882319F05FBFC9010895BB
:1018E0008BE68093E800F9CFCF93DF9390E0FC0183
:1018F000E950FE4F2491FC01E852FE4F8491882369
:1019000061F190E0880F991FFC01E454FE4FC591EE
:10191000D491FC01E653FE4FA591B491611109C029
:101920009FB7F8948881209582238883EC912E2399
:101930000BC0623061F49FB7F8948881322F3095E4
:1019400083238883EC912E2B2C939FBF06C08FB7E7
:10195000F894E8812E2B28838FBFDF91CF910895D3
:101960008F929F92AF92BF92CF92DF92EF92FF92AF
:101970006B017C010E94A0094B015C01C114D104E0
:10198000E104F104F1F00E94A009DC01CB01881907
:101990009909AA09BB09883E9340A105B10570F3D6
:1019A00021E0C21AD108E108F10888EE880E83E030
:1019B000981EA11CB11CC114D104E104F10419F753
:1019C000DDCFFF90EF90DF90CF90BF90AF909F90D2
:1019D0008F9008951F920F920FB60F9211242F939C
:1019E0003F938F939F93AF93BF9380914B029091BE
:1019F0004C02A0914D02B0914E0230914A0223E078
:101A0000230F2D3720F40196A11DB11D05C026E836
:101A1000230F0296A11DB11D20934A0280934B0211
:101A200090934C02A0934D02B0934E0280914F02CE
:101A300090915002A0915102B09152020196A11DC5
:101A4000B11D80934F0290935002A0935102B09326
:101A50005202BF91AF919F918F913F912F910F9023
:101A60000FBE0F901F90189584E492E00C948E04A2
:101A7000CF93DF93CDB7DEB72C970FB6F894DEBFC8
:101A80000FBECDBF789484B5826084BD84B581607B
:101A900084BD85B5826085BD85B5816085BD809139
:101AA0006E00816080936E001092810080918100B1
:101AB00082608093810080918100816080938100A9
:101AC000809180008160809380008091910082608D
:101AD000809391008091910081608093910080912A
:101AE00090008160809390008091C1008460809319
:101AF000C1008091C10082608093C1008091C100CB
:101B000081608093C1008091C30081608093C30095
:101B10008091C00082608093C0008091C20081608B
:101B20008093C20080917A00846080937A008091D3
:101B30007A00826080937A0080917A00816080933D
:101B40007A0080917A00806880937A001092E60192
:101B50001092E0011092DF018091D70081608093A4
:101B6000D70080EA8093D80089B5806189BD89B5A6
:101B7000826089BD09B400FEFDCF61E070E080E0C5
:101B800090E00E94B00C8091D8008F7C806180939F
:101B9000D8008091E000807F8093E0008091E10098
:101BA0008E7E8093E1008DE08093E200559A209A2A
:101BB0005D98289862E082E00E94740C62E083E005
:101BC0000E94740C61E08DE00E94740C80E00E9421
:101BD000CD098FEF9FEF9093F4018093F30164EFB1
:101BE00071E080E090E00E94B00C7724739480E074
:101BF000A82E80E0B82E6624639487EE91E00E94C0
:101C0000B702181619060CF0D1C040E050E063EBA3
:101C100071E084E492E00E946D0487EE91E00E94FE
:101C2000B702181619066CF587EE91E00E94F703CB
:101C300089831A8200914802109149020F5F1F4F59
:101C4000B80184E492E00E943404882399F0209142
:101C50004402309145028091480290914902BE01B0
:101C60006F5F7F4F820F931F0E94CA131093490228
:101C70000093480262E070E080E090E00E94B00CC7
:101C8000CCCF63EB71E084E492E00E9415048111F3
:101C90008DC08091E401811189C0ADC069E471E01B
:101CA000CE0101960E949304CE0101960E94C50ABE
:101CB000182FCE0101960E948E04112309F431C120
:101CC000209148023091490242E050E064E472E021
:101CD000CE0107960E94A8048B859C85892B09F468
:101CE00019C1EF80F8846CE270E0C7010E94B6135E
:101CF000009709F40FC18C010E191F09980140E0EB
:101D000050E0BE01695F7F4FCE0101960E94A8049A
:101D100089819A81009709F400C10E942F11F62E43
:101D2000CE0101960E948E042B853C85A8014F5F51
:101D30005F4FBE01695F7F4FCE0101960E94A804EC
:101D400089819A81009709F4EAC00E942F11162F09
:101D5000CE0101960E948E0460E08F2D0E94E20A5F
:101D60006AE070E080E090E00E94B00C612F80E0BB
:101D70000E94E20A62E070E080E090E00E94B00C15
:101D80006CE471E0CE0101960E949304CE010196AD
:101D90000E945B0A0E94480ACE0101960E948E04AE
:101DA000CE0107960E948E041092E4016AE070E072
:101DB00080E090E00E94B00C8091E2019091E301FC
:101DC0000196853691052CF49093E3018093E2010E
:101DD0000BC01092E3011092E2018091E10187258E
:101DE0008093E1010E94CD09A114B10409F405CF4B
:101DF0000E94000002CF6092E40163EB71E0CE012B
:101E000001960E9493046FEA71E0CE0107960E944A
:101E10009304BE016F5F7F4FCE0107960E940B0BAC
:101E2000CE0107960E948E04CE0101960E948E0478
:101E300063EB71E0CE0101960E94930462EB71E0C6
:101E4000CE0107960E949304BE016F5F7F4FCE01C3
:101E500007960E940B0BCE0107960E948E04CE01BE
:101E600001960E948E04C0904402D0904502C11495
:101E7000D10409F445C000914802109149020115AE
:101E80001105F1F1760147018FEF881A980AF701E1
:101E90008081082E000C990B0E946B11892B11F088
:101EA0007401F1CF015011090C0D1D1DF801808145
:101EB000082E000C990B0E946B11892B31F00E1526
:101EC0001F0518F001501109F1CFA8014F5F5F4FB6
:101ED0004E195F095093490240934802CE14DF0423
:101EE00020F4B701C6010E949B13E0914402F091D7
:101EF00045028091480290914902E80FF91F108233
:101F00008091480290914902039708F0C7CE83E47C
:101F100091E004C10FEF1FEFF1CEF12C01CF10E0E3
:101F200017CF63E571E0CE0101960E949304CE01C4
:101F300001960E94C50A182FCE0101960E948E04B8
:101F40001123A9F0209148023091490242E050E06B
:101F500064E472E0CE0107960E94A80460E571E097
:101F6000CE0107960E9415048823D1F12EC062E5A8
:101F700071E0CE0101960E949304CE0101960E9469
:101F8000C50A182FCE0101960E948E04112361F11B
:101F9000209148023091490243E050E064E472E04D
:101FA000CE0107960E94A80460E571E0CE01079675
:101FB0000E941504882359F081E00E94FF0A6AE01C
:101FC00070E080E090E00E94B00C81E00AC082E006
:101FD0000E94FF0A6AE070E080E090E00E94B00C8E
:101FE00082E00E94FF0AC6CE66E571E0CE0101964E
:101FF0000E949304CE0101960E94C50A182FCE01BB
:1020000001960E948E041123A9F02091480230917C
:10201000490242E050E064E472E0CE0107960E947B
:10202000A8044B855C856F81788588E392E00E94E7
:10203000A303A0CE69E571E084E492E00E94150458
:10204000882369F061EB88E392E00E94170965E05C
:1020500070E080E090E00E94B00C61EB14C06DE590
:1020600071E084E492E00E9415048823A9F060EBFB
:1020700088E392E00E94170965E070E080E090E05C
:102080000E94B00C60EB88E392E00E94CC0862E012
:1020900070E080E090E00CC063E671E084E492E0E0
:1020A0000E9415048823B9F065E070E080E090E0BC
:1020B0000E94B00C6CE471E0CE0101960E94930482
:1020C000CE0101960E945B0A0E94480ACE01019649
:1020D0000E948E0469CE69E671E084E492E00E9479
:1020E0001504882309F460CE8EE691E00E942C0A44
:1020F00088E791E00E942C0A80E891E00E942C0A77
:102100008AE891E00E942C0A87EA91E00E942C0A5A
:1021100087E991E00E942C0A86EA91E00E942C0A4D
:1021200043CE1092EA011092E90188EE93E0A0E01C
:10213000B0E08093EB019093EC01A093ED01B0939C
:10214000EE0189E291E09093E8018093E7018FEF3F
:102150009FEF9093F4018093F301109237028091E6
:102160005902811113C0109254021092530285E358
:1021700092E0909356028093550286E390E090930C
:1021800058028093570281E0809359020E945B08B5
:10219000FC01A385B485109729F483E592E0948728
:1021A00083870BC08D919C911197009711F0DC01F2
:1021B000F9CF83E592E08D939C93258536858091B8
:1021C000570290915802820F931F9687858710922D
:1021D0003B0210923A028BE391E090933902809394
:1021E000380280916702811113C01092620210922E
:1021F00061028BE692E090936402809363028FE227
:1022000090E0909366028093650281E0809367027C
:102210000E945B08FC01A385B485109729F481E630
:1022200092E0948783870BC08D919C9111970097C2
:1022300011F0DC01F9CF81E692E08D939C93258526
:1022400036858091650290916602820F931F968772
:10225000858763EB71E084E492E00C9493041F9310
:10226000FC0199278827BC01E89411911032E9F309
:10227000193010F01E30C8F31B3251F01D3249F4F2
:10228000689406C00E945611610F711D811D911D39
:10229000119110531A30B0F33EF4909580957095DB
:1022A00061957F4F8F4F9F4F1F910895592F482F52
:1022B000372F262F660F771F881F991F660F771FEE
:1022C000881F991F620F731F841F951F660F771F4A
:1022D000881F991F089591110C947411803219F080
:1022E00089508550C8F708959927882708952F9217
:1022F0003F924F925F926F927F928F929F92AF9296
:10230000BF92CF92DF92EF92FF920F931F93CF93E2
:10231000DF93CDB7DEB7CA1BDB0B0FB6F894DEBF79
:102320000FBECDBF09942A88398848885F846E849F
:102330007D848C849B84AA84B984C884DF80EE80E9
:10234000FD800C811B81AA81B981CE0FD11D0FB6F2
:10235000F894DEBF0FBECDBFED010895EE0FFF1F55
:102360000590F491E02D09940F931F93CF93DF9381
:102370008230910510F482E090E0E0917102F091DA
:10238000720220E030E0A0E0B0E0309719F1408127
:1023900051810281138148175907C8F084179507A6
:1023A00069F4109731F012960C93129713961C93C0
:1023B00027C0009371021093720222C021153105CB
:1023C00019F04217530718F49A01BD01EF01DF011C
:1023D000F801DBCF21153105F9F0281B390B24302A
:1023E000310580F48A819B816115710521F0FB0123
:1023F0009383828304C09093720280937102FE01E2
:10240000329644C0FE01E20FF31F81939193225054
:102410003109398328833AC020916F0230917002CC
:10242000232B41F420911501309116013093700255
:1024300020936F0220911301309114012115310571
:1024400041F42DB73EB74091170150911801241B5C
:10245000350BE0916F02F0917002E217F307A0F4E0
:102460002E1B3F0B2817390778F0AC014E5F5F4FEA
:102470002417350748F04E0F5F1F509370024093AA
:102480006F028193919302C0E0E0F0E0CF01DF9111
:10249000CF911F910F910895CF93DF93009709F487
:1024A00081C0FC01329713821282A0917102B09117
:1024B0007202109781F420813181820F931F209145
:1024C0006F02309170022817390751F5F0937002AE
:1024D000E0936F0267C0ED0120E030E0CE17DF0728
:1024E00040F44A815B819E0141155105F1F0EA01FA
:1024F000F5CFD383C28340815181840F951FC817C4
:10250000D90759F488819981840F951F0296918388
:1025100080838A819B81938382832115310529F4ED
:10252000F0937202E09371023DC0E901FB83EA83FC
:1025300049915991C40FD51FEC17FD0761F48081B3
:102540009181840F951F0296E90199838883828186
:1025500093819B838A83E0E0F0E012968D919C91B9
:102560001397009719F0FD01DC01F7CF8D919C9135
:1025700011979D012E5F3F4F820F931F20916F0295
:10258000309170022817390769F4309729F41092B6
:1025900072021092710202C013821282B093700212
:1025A000A0936F02DF91CF910895A0E0B0E0EBED32
:1025B000F2E10C947B11EC01009721F4CB010E9415
:1025C000B411B4C0FC01E60FF71F9C012250310981
:1025D000E217F30708F4A8C0D9010D911C911197D7
:1025E00006171707B0F00530110508F49BC0C801A5
:1025F00004978617970708F495C002501109061B27
:10260000170B019311936D937C93CF010E944C1291
:1026100089C05B01A01AB10A4C01800E911EA091E5
:102620007102B0917202612C712CE12CF12C109787
:1026300009F446C08D919C911197A815B905B1F583
:102640006C0142E0C40ED11CCA14DB0478F14C01C9
:102650008A189B08640142E0C40ED11C1296BC90FB
:1026600012971396AC91B5E0CB16D10440F0B2822C
:10267000A38391828082D9016D937C9309C00E5F00
:102680001F4F800F911FF90191838083EB2DFA2F4B
:10269000E114F10431F0D7011396FC93EE931297F5
:1026A00041C0F0937202E09371023CC06816790653
:1026B00008F43C017D0112960D90BC91A02DB7CF7E
:1026C00080916F029091700288169906E1F4661667
:1026D0007706C8F48091130190911401009741F49A
:1026E0008DB79EB74091170150911801841B950B2F
:1026F000E817F907C8F4F0937002E0936F02F9014C
:10270000718360830FC0CB010E94B4117C010097DC
:1027100059F0A801BE010E949B13CE010E944C12E9
:10272000C70104C0CE0102C080E090E0CDB7DEB7A3
:10273000EEE00C949711FB01DC0102C001900D92B8
:1027400041505040D8F708956817790768F4FB01A5
:10275000DC01E40FF51FA40FB51F02C002900E921A
:1027600041505040D8F708950C949B13FC0181917F
:10277000861721F08823D9F7992708953197CF013B
:102780000895FB01DC018D91019080190110D9F3AE
:10279000990B0895FB01DC0101900D920020E1F7F7
:1027A0000895FB01DC014150504030F08D910190C3
:1027B000801919F40020B9F7881B990B0895FB01C3
:1027C00051915523A9F0BF01DC014D9145174111ED
:1027D000E1F759F4CD010190002049F04D914015E9
:1027E0004111C9F3FB014111EFCF81E090E0019766
:1027F000089511E0CEE4D1E004C0FE010E94AE11C4
:0C2800002196CF34D107C9F7F894FFCF20
:10280C0000C18081000000FFFFFFFF00E10000001D
:10281C0000000000007302800000000000D1025490
:10282C00031403F8020000000091024508B202A74D
:10283C0002B702F703D303000000008A09A303D0F8
:10284C0003CF034552524F52004D3A004F4B2C00D0
:10285C004C0044433A004B3A0045534300454E5418
:10286C0045520052656164790068656C7000454E94
:10287C005445522D3E4F4B004553432D3E4F4B007C
:10288C0052656164792D3E4F4B004D3A3130302CFE
:10289C0032302D3E4F4B004B3A48656C6C6F2C77A9
:1028AC006F726C64210044433A4C2D3E4F4B000D2B
:0428BC00000D0A0001
:00000001FF
